{
  "_format": "hh-sol-artifact-1",
  "contractName": "dBlog",
  "sourceName": "contracts/dBlog.sol",
  "abi": [
    {
      "inputs": [],
      "stateMutability": "nonpayable",
      "type": "constructor"
    },
    {
      "inputs": [
        {
          "internalType": "address",
          "name": "_user",
          "type": "address"
        },
        {
          "internalType": "uint256",
          "name": "_forumIndex",
          "type": "uint256"
        },
        {
          "internalType": "string",
          "name": "_answer",
          "type": "string"
        }
      ],
      "name": "answerForum",
      "outputs": [],
      "stateMutability": "nonpayable",
      "type": "function"
    },
    {
      "inputs": [
        {
          "internalType": "address",
          "name": "_user",
          "type": "address"
        },
        {
          "internalType": "uint256",
          "name": "_forumIndex",
          "type": "uint256"
        },
        {
          "internalType": "string",
          "name": "_comment",
          "type": "string"
        }
      ],
      "name": "commentForum",
      "outputs": [],
      "stateMutability": "nonpayable",
      "type": "function"
    },
    {
      "inputs": [
        {
          "internalType": "string",
          "name": "_name",
          "type": "string"
        },
        {
          "internalType": "string",
          "name": "_image",
          "type": "string"
        },
        {
          "internalType": "uint256",
          "name": "_age",
          "type": "uint256"
        }
      ],
      "name": "createUser",
      "outputs": [],
      "stateMutability": "nonpayable",
      "type": "function"
    },
    {
      "inputs": [
        {
          "internalType": "uint256",
          "name": "_postIndex",
          "type": "uint256"
        }
      ],
      "name": "deletePost",
      "outputs": [],
      "stateMutability": "nonpayable",
      "type": "function"
    },
    {
      "inputs": [
        {
          "internalType": "string",
          "name": "_text",
          "type": "string"
        },
        {
          "internalType": "string",
          "name": "_title",
          "type": "string"
        },
        {
          "internalType": "string",
          "name": "_description",
          "type": "string"
        },
        {
          "internalType": "string",
          "name": "_image",
          "type": "string"
        }
      ],
      "name": "doPost",
      "outputs": [],
      "stateMutability": "nonpayable",
      "type": "function"
    },
    {
      "inputs": [
        {
          "internalType": "address",
          "name": "",
          "type": "address"
        },
        {
          "internalType": "uint256",
          "name": "",
          "type": "uint256"
        }
      ],
      "name": "forums",
      "outputs": [
        {
          "internalType": "string",
          "name": "title",
          "type": "string"
        },
        {
          "internalType": "string",
          "name": "text",
          "type": "string"
        },
        {
          "internalType": "string",
          "name": "description",
          "type": "string"
        },
        {
          "internalType": "string",
          "name": "image",
          "type": "string"
        },
        {
          "internalType": "uint256",
          "name": "timestamp",
          "type": "uint256"
        },
        {
          "internalType": "uint256",
          "name": "id",
          "type": "uint256"
        },
        {
          "internalType": "string",
          "name": "question",
          "type": "string"
        },
        {
          "internalType": "string",
          "name": "answer",
          "type": "string"
        },
        {
          "internalType": "string",
          "name": "comment",
          "type": "string"
        },
        {
          "internalType": "uint256",
          "name": "likes",
          "type": "uint256"
        }
      ],
      "stateMutability": "view",
      "type": "function"
    },
    {
      "inputs": [
        {
          "internalType": "address",
          "name": "_user",
          "type": "address"
        }
      ],
      "name": "getAllForums",
      "outputs": [
        {
          "components": [
            {
              "internalType": "string",
              "name": "title",
              "type": "string"
            },
            {
              "internalType": "string",
              "name": "text",
              "type": "string"
            },
            {
              "internalType": "string",
              "name": "description",
              "type": "string"
            },
            {
              "internalType": "string",
              "name": "image",
              "type": "string"
            },
            {
              "internalType": "uint256",
              "name": "timestamp",
              "type": "uint256"
            },
            {
              "internalType": "uint256",
              "name": "id",
              "type": "uint256"
            },
            {
              "internalType": "string",
              "name": "question",
              "type": "string"
            },
            {
              "internalType": "string",
              "name": "answer",
              "type": "string"
            },
            {
              "internalType": "string",
              "name": "comment",
              "type": "string"
            },
            {
              "internalType": "uint256",
              "name": "likes",
              "type": "uint256"
            }
          ],
          "internalType": "struct dBlog.Forum[]",
          "name": "",
          "type": "tuple[]"
        }
      ],
      "stateMutability": "view",
      "type": "function"
    },
    {
      "inputs": [
        {
          "internalType": "address",
          "name": "_user",
          "type": "address"
        }
      ],
      "name": "getAllPosts",
      "outputs": [
        {
          "components": [
            {
              "internalType": "string",
              "name": "text",
              "type": "string"
            },
            {
              "internalType": "string",
              "name": "title",
              "type": "string"
            },
            {
              "internalType": "string",
              "name": "description",
              "type": "string"
            },
            {
              "internalType": "string",
              "name": "image",
              "type": "string"
            },
            {
              "internalType": "uint256",
              "name": "timestamp",
              "type": "uint256"
            },
            {
              "internalType": "uint256",
              "name": "id",
              "type": "uint256"
            },
            {
              "internalType": "uint256",
              "name": "likes",
              "type": "uint256"
            }
          ],
          "internalType": "struct dBlog.Post[]",
          "name": "",
          "type": "tuple[]"
        }
      ],
      "stateMutability": "view",
      "type": "function"
    },
    {
      "inputs": [
        {
          "internalType": "address",
          "name": "_user",
          "type": "address"
        },
        {
          "internalType": "uint256",
          "name": "_forumIndex",
          "type": "uint256"
        }
      ],
      "name": "likeForum",
      "outputs": [],
      "stateMutability": "nonpayable",
      "type": "function"
    },
    {
      "inputs": [
        {
          "internalType": "address",
          "name": "_user",
          "type": "address"
        },
        {
          "internalType": "uint256",
          "name": "_postIndex",
          "type": "uint256"
        }
      ],
      "name": "likePost",
      "outputs": [],
      "stateMutability": "nonpayable",
      "type": "function"
    },
    {
      "inputs": [
        {
          "internalType": "string",
          "name": "_title",
          "type": "string"
        },
        {
          "internalType": "string",
          "name": "_text",
          "type": "string"
        },
        {
          "internalType": "string",
          "name": "_description",
          "type": "string"
        },
        {
          "internalType": "string",
          "name": "_image",
          "type": "string"
        },
        {
          "internalType": "string",
          "name": "_question",
          "type": "string"
        }
      ],
      "name": "postOnForum",
      "outputs": [],
      "stateMutability": "nonpayable",
      "type": "function"
    },
    {
      "inputs": [
        {
          "internalType": "address",
          "name": "",
          "type": "address"
        },
        {
          "internalType": "uint256",
          "name": "",
          "type": "uint256"
        }
      ],
      "name": "posts",
      "outputs": [
        {
          "internalType": "string",
          "name": "text",
          "type": "string"
        },
        {
          "internalType": "string",
          "name": "title",
          "type": "string"
        },
        {
          "internalType": "string",
          "name": "description",
          "type": "string"
        },
        {
          "internalType": "string",
          "name": "image",
          "type": "string"
        },
        {
          "internalType": "uint256",
          "name": "timestamp",
          "type": "uint256"
        },
        {
          "internalType": "uint256",
          "name": "id",
          "type": "uint256"
        },
        {
          "internalType": "uint256",
          "name": "likes",
          "type": "uint256"
        }
      ],
      "stateMutability": "view",
      "type": "function"
    },
    {
      "inputs": [
        {
          "internalType": "address",
          "name": "_user",
          "type": "address"
        },
        {
          "internalType": "uint256",
          "name": "_forumIndex",
          "type": "uint256"
        },
        {
          "internalType": "string",
          "name": "_question",
          "type": "string"
        }
      ],
      "name": "questionForum",
      "outputs": [],
      "stateMutability": "nonpayable",
      "type": "function"
    },
    {
      "inputs": [
        {
          "internalType": "uint256",
          "name": "_postIndex",
          "type": "uint256"
        },
        {
          "internalType": "string",
          "name": "_newText",
          "type": "string"
        },
        {
          "internalType": "string",
          "name": "_newTitle",
          "type": "string"
        },
        {
          "internalType": "string",
          "name": "_newDescription",
          "type": "string"
        },
        {
          "internalType": "string",
          "name": "_newImage",
          "type": "string"
        }
      ],
      "name": "updatePost",
      "outputs": [],
      "stateMutability": "nonpayable",
      "type": "function"
    },
    {
      "inputs": [
        {
          "internalType": "address",
          "name": "",
          "type": "address"
        }
      ],
      "name": "users",
      "outputs": [
        {
          "internalType": "string",
          "name": "name",
          "type": "string"
        },
        {
          "internalType": "string",
          "name": "image",
          "type": "string"
        },
        {
          "internalType": "uint256",
          "name": "age",
          "type": "uint256"
        },
        {
          "internalType": "uint256",
          "name": "id",
          "type": "uint256"
        }
      ],
      "stateMutability": "view",
      "type": "function"
    },
    {
      "inputs": [
        {
          "internalType": "string",
          "name": "_text",
          "type": "string"
        },
        {
          "internalType": "string",
          "name": "_title",
          "type": "string"
        },
        {
          "internalType": "string",
          "name": "_description",
          "type": "string"
        },
        {
          "internalType": "string",
          "name": "_image",
          "type": "string"
        }
      ],
      "name": "writePost",
      "outputs": [],
      "stateMutability": "nonpayable",
      "type": "function"
    }
  ],
  "bytecode": "0x608060405234801561001057600080fd5b506001600081905550600180819055506001600281905550612eb0806100376000396000f3fe608060405234801561001057600080fd5b50600436106101005760003560e01c806370447d7f11610097578063d573e61a11610066578063d573e61a146102cb578063d84c5bd2146102e7578063e6fd614f14610303578063ec25508c1461031f57610100565b806370447d7f1461023057806377d2765c1461024c578063a87430ba1461027c578063d2cddda6146102af57610100565b80634047364a116100d35780634047364a1461019257806348351529146101ae5780634a8386e8146101ca5780635c538df3146101fa57610100565b8063094cd5ee146101055780632d4d594e14610121578063353188331461013d5780633f628fe814610159575b600080fd5b61011f600480360381019061011a9190612052565b61033b565b005b61013b600480360381019061013691906121c5565b61053c565b005b610157600480360381019061015291906122fa565b610692565b005b610173600480360381019061016e91906122fa565b610792565b6040516101899a999897969594939291906123d1565b60405180910390f35b6101ac60048036038101906101a791906121c5565b610bbb565b005b6101c860048036038101906101c391906122fa565b610bcd565b005b6101e460048036038101906101df919061249e565b610ccd565b6040516101f191906126ea565b60405180910390f35b610214600480360381019061020f91906122fa565b611188565b604051610227979695949392919061270c565b60405180910390f35b61024a60048036038101906102459190612797565b611407565b005b6102666004803603810190610261919061249e565b611507565b6040516102739190612979565b60405180910390f35b6102966004803603810190610291919061249e565b61180b565b6040516102a6949392919061299b565b60405180910390f35b6102c960048036038101906102c491906129ee565b61194b565b005b6102e560048036038101906102e09190612797565b6119f1565b005b61030160048036038101906102fc9190612a79565b611af1565b005b61031d60048036038101906103189190612797565b611cd2565b005b61033960048036038101906103349190612b80565b611dd2565b005b600460003373ffffffffffffffffffffffffffffffffffffffff1673ffffffffffffffffffffffffffffffffffffffff1681526020019081526020016000208054905081106103bf576040517f08c379a00000000000000000000000000000000000000000000000000000000081526004016103b690612cb7565b60405180910390fd5b600460003373ffffffffffffffffffffffffffffffffffffffff1673ffffffffffffffffffffffffffffffffffffffff16815260200190815260200160002081815481106104105761040f612cd7565b5b90600052602060002090600702016000808201600061042f9190611f25565b60018201600061043f9190611f25565b60028201600061044f9190611f25565b60038201600061045f9190611f25565b6004820160009055600582016000905560068201600090555050600460003373ffffffffffffffffffffffffffffffffffffffff1673ffffffffffffffffffffffffffffffffffffffff1681526020019081526020016000208054806104c8576104c7612d06565b5b6001900381819060005260206000209060070201600080820160006104ed9190611f25565b6001820160006104fd9190611f25565b60028201600061050d9190611f25565b60038201600061051d9190611f25565b6004820160009055600582016000905560068201600090555050905550565b60006040518060e00160405280868152602001858152602001848152602001838152602001428152602001600154815260200160008152509050600460003373ffffffffffffffffffffffffffffffffffffffff1673ffffffffffffffffffffffffffffffffffffffff16815260200190815260200160002081908060018154018082558091505060019003906000526020600020906007020160009091909190915060008201518160000190805190602001906105fb929190611f65565b506020820151816001019080519060200190610618929190611f65565b506040820151816002019080519060200190610635929190611f65565b506060820151816003019080519060200190610652929190611f65565b506080820151816004015560a0820151816005015560c0820151816006015550506001600081548092919061068690612d64565b91905055505050505050565b600560008373ffffffffffffffffffffffffffffffffffffffff1673ffffffffffffffffffffffffffffffffffffffff168152602001908152602001600020805490508110610716576040517f08c379a000000000000000000000000000000000000000000000000000000000815260040161070d90612df9565b60405180910390fd5b600560008373ffffffffffffffffffffffffffffffffffffffff1673ffffffffffffffffffffffffffffffffffffffff168152602001908152602001600020818154811061076757610766612cd7565b5b90600052602060002090600a0201600901600081548092919061078990612d64565b91905055505050565b600560205281600052604060002081815481106107ae57600080fd5b90600052602060002090600a0201600091509150508060000180546107d290612e48565b80601f01602080910402602001604051908101604052809291908181526020018280546107fe90612e48565b801561084b5780601f106108205761010080835404028352916020019161084b565b820191906000526020600020905b81548152906001019060200180831161082e57829003601f168201915b50505050509080600101805461086090612e48565b80601f016020809104026020016040519081016040528092919081815260200182805461088c90612e48565b80156108d95780601f106108ae576101008083540402835291602001916108d9565b820191906000526020600020905b8154815290600101906020018083116108bc57829003601f168201915b5050505050908060020180546108ee90612e48565b80601f016020809104026020016040519081016040528092919081815260200182805461091a90612e48565b80156109675780601f1061093c57610100808354040283529160200191610967565b820191906000526020600020905b81548152906001019060200180831161094a57829003601f168201915b50505050509080600301805461097c90612e48565b80601f01602080910402602001604051908101604052809291908181526020018280546109a890612e48565b80156109f55780601f106109ca576101008083540402835291602001916109f5565b820191906000526020600020905b8154815290600101906020018083116109d857829003601f168201915b505050505090806004015490806005015490806006018054610a1690612e48565b80601f0160208091040260200160405190810160405280929190818152602001828054610a4290612e48565b8015610a8f5780601f10610a6457610100808354040283529160200191610a8f565b820191906000526020600020905b815481529060010190602001808311610a7257829003601f168201915b505050505090806007018054610aa490612e48565b80601f0160208091040260200160405190810160405280929190818152602001828054610ad090612e48565b8015610b1d5780601f10610af257610100808354040283529160200191610b1d565b820191906000526020600020905b815481529060010190602001808311610b0057829003601f168201915b505050505090806008018054610b3290612e48565b80601f0160208091040260200160405190810160405280929190818152602001828054610b5e90612e48565b8015610bab5780601f10610b8057610100808354040283529160200191610bab565b820191906000526020600020905b815481529060010190602001808311610b8e57829003601f168201915b505050505090806009015490508a565b610bc78484848461053c565b50505050565b600460008373ffffffffffffffffffffffffffffffffffffffff1673ffffffffffffffffffffffffffffffffffffffff168152602001908152602001600020805490508110610c51576040517f08c379a0000000000000000000000000000000000000000000000000000000008152600401610c4890612cb7565b60405180910390fd5b600460008373ffffffffffffffffffffffffffffffffffffffff1673ffffffffffffffffffffffffffffffffffffffff1681526020019081526020016000208181548110610ca257610ca1612cd7565b5b90600052602060002090600702016006016000815480929190610cc490612d64565b91905055505050565b6060600560008373ffffffffffffffffffffffffffffffffffffffff1673ffffffffffffffffffffffffffffffffffffffff168152602001908152602001600020805480602002602001604051908101604052809291908181526020016000905b8282101561117d57838290600052602060002090600a020160405180610140016040529081600082018054610d6290612e48565b80601f0160208091040260200160405190810160405280929190818152602001828054610d8e90612e48565b8015610ddb5780601f10610db057610100808354040283529160200191610ddb565b820191906000526020600020905b815481529060010190602001808311610dbe57829003601f168201915b50505050508152602001600182018054610df490612e48565b80601f0160208091040260200160405190810160405280929190818152602001828054610e2090612e48565b8015610e6d5780601f10610e4257610100808354040283529160200191610e6d565b820191906000526020600020905b815481529060010190602001808311610e5057829003601f168201915b50505050508152602001600282018054610e8690612e48565b80601f0160208091040260200160405190810160405280929190818152602001828054610eb290612e48565b8015610eff5780601f10610ed457610100808354040283529160200191610eff565b820191906000526020600020905b815481529060010190602001808311610ee257829003601f168201915b50505050508152602001600382018054610f1890612e48565b80601f0160208091040260200160405190810160405280929190818152602001828054610f4490612e48565b8015610f915780601f10610f6657610100808354040283529160200191610f91565b820191906000526020600020905b815481529060010190602001808311610f7457829003601f168201915b505050505081526020016004820154815260200160058201548152602001600682018054610fbe90612e48565b80601f0160208091040260200160405190810160405280929190818152602001828054610fea90612e48565b80156110375780601f1061100c57610100808354040283529160200191611037565b820191906000526020600020905b81548152906001019060200180831161101a57829003601f168201915b5050505050815260200160078201805461105090612e48565b80601f016020809104026020016040519081016040528092919081815260200182805461107c90612e48565b80156110c95780601f1061109e576101008083540402835291602001916110c9565b820191906000526020600020905b8154815290600101906020018083116110ac57829003601f168201915b505050505081526020016008820180546110e290612e48565b80601f016020809104026020016040519081016040528092919081815260200182805461110e90612e48565b801561115b5780601f106111305761010080835404028352916020019161115b565b820191906000526020600020905b81548152906001019060200180831161113e57829003601f168201915b5050505050815260200160098201548152505081526020019060010190610d2e565b505050509050919050565b600460205281600052604060002081815481106111a457600080fd5b9060005260206000209060070201600091509150508060000180546111c890612e48565b80601f01602080910402602001604051908101604052809291908181526020018280546111f490612e48565b80156112415780601f1061121657610100808354040283529160200191611241565b820191906000526020600020905b81548152906001019060200180831161122457829003601f168201915b50505050509080600101805461125690612e48565b80601f016020809104026020016040519081016040528092919081815260200182805461128290612e48565b80156112cf5780601f106112a4576101008083540402835291602001916112cf565b820191906000526020600020905b8154815290600101906020018083116112b257829003601f168201915b5050505050908060020180546112e490612e48565b80601f016020809104026020016040519081016040528092919081815260200182805461131090612e48565b801561135d5780601f106113325761010080835404028352916020019161135d565b820191906000526020600020905b81548152906001019060200180831161134057829003601f168201915b50505050509080600301805461137290612e48565b80601f016020809104026020016040519081016040528092919081815260200182805461139e90612e48565b80156113eb5780601f106113c0576101008083540402835291602001916113eb565b820191906000526020600020905b8154815290600101906020018083116113ce57829003601f168201915b5050505050908060040154908060050154908060060154905087565b600560008473ffffffffffffffffffffffffffffffffffffffff1673ffffffffffffffffffffffffffffffffffffffff16815260200190815260200160002080549050821061148b576040517f08c379a000000000000000000000000000000000000000000000000000000000815260040161148290612df9565b60405180910390fd5b80600560008573ffffffffffffffffffffffffffffffffffffffff1673ffffffffffffffffffffffffffffffffffffffff16815260200190815260200160002083815481106114dd576114dc612cd7565b5b90600052602060002090600a02016008019080519060200190611501929190611f65565b50505050565b6060600460008373ffffffffffffffffffffffffffffffffffffffff1673ffffffffffffffffffffffffffffffffffffffff168152602001908152602001600020805480602002602001604051908101604052809291908181526020016000905b8282101561180057838290600052602060002090600702016040518060e001604052908160008201805461159b90612e48565b80601f01602080910402602001604051908101604052809291908181526020018280546115c790612e48565b80156116145780601f106115e957610100808354040283529160200191611614565b820191906000526020600020905b8154815290600101906020018083116115f757829003601f168201915b5050505050815260200160018201805461162d90612e48565b80601f016020809104026020016040519081016040528092919081815260200182805461165990612e48565b80156116a65780601f1061167b576101008083540402835291602001916116a6565b820191906000526020600020905b81548152906001019060200180831161168957829003601f168201915b505050505081526020016002820180546116bf90612e48565b80601f01602080910402602001604051908101604052809291908181526020018280546116eb90612e48565b80156117385780601f1061170d57610100808354040283529160200191611738565b820191906000526020600020905b81548152906001019060200180831161171b57829003601f168201915b5050505050815260200160038201805461175190612e48565b80601f016020809104026020016040519081016040528092919081815260200182805461177d90612e48565b80156117ca5780601f1061179f576101008083540402835291602001916117ca565b820191906000526020600020905b8154815290600101906020018083116117ad57829003601f168201915b50505050508152602001600482015481526020016005820154815260200160068201548152505081526020019060010190611568565b505050509050919050565b600360205280600052604060002060009150905080600001805461182e90612e48565b80601f016020809104026020016040519081016040528092919081815260200182805461185a90612e48565b80156118a75780601f1061187c576101008083540402835291602001916118a7565b820191906000526020600020905b81548152906001019060200180831161188a57829003601f168201915b5050505050908060010180546118bc90612e48565b80601f01602080910402602001604051908101604052809291908181526020018280546118e890612e48565b80156119355780601f1061190a57610100808354040283529160200191611935565b820191906000526020600020905b81548152906001019060200180831161191857829003601f168201915b5050505050908060020154908060030154905084565b6000600360003373ffffffffffffffffffffffffffffffffffffffff1673ffffffffffffffffffffffffffffffffffffffff1681526020019081526020016000209050838160000190805190602001906119a6929190611f65565b50828160010190805190602001906119bf929190611f65565b5081816002018190555060005481600301819055506000808154809291906119e690612d64565b919050555050505050565b600560008473ffffffffffffffffffffffffffffffffffffffff1673ffffffffffffffffffffffffffffffffffffffff168152602001908152602001600020805490508210611a75576040517f08c379a0000000000000000000000000000000000000000000000000000000008152600401611a6c90612df9565b60405180910390fd5b80600560008573ffffffffffffffffffffffffffffffffffffffff1673ffffffffffffffffffffffffffffffffffffffff1681526020019081526020016000208381548110611ac757611ac6612cd7565b5b90600052602060002090600a02016007019080519060200190611aeb929190611f65565b50505050565b6000604051806101400160405280878152602001868152602001858152602001848152602001428152602001600254815260200183815260200160405180602001604052806000815250815260200160405180602001604052806000815250815260200160008152509050600560003373ffffffffffffffffffffffffffffffffffffffff1673ffffffffffffffffffffffffffffffffffffffff1681526020019081526020016000208190806001815401808255809150506001900390600052602060002090600a02016000909190919091506000820151816000019080519060200190611be1929190611f65565b506020820151816001019080519060200190611bfe929190611f65565b506040820151816002019080519060200190611c1b929190611f65565b506060820151816003019080519060200190611c38929190611f65565b506080820151816004015560a0820151816005015560c0820151816006019080519060200190611c69929190611f65565b5060e0820151816007019080519060200190611c86929190611f65565b50610100820151816008019080519060200190611ca4929190611f65565b506101208201518160090155505060026000815480929190611cc590612d64565b9190505550505050505050565b600560008473ffffffffffffffffffffffffffffffffffffffff1673ffffffffffffffffffffffffffffffffffffffff168152602001908152602001600020805490508210611d56576040517f08c379a0000000000000000000000000000000000000000000000000000000008152600401611d4d90612df9565b60405180910390fd5b80600560008573ffffffffffffffffffffffffffffffffffffffff1673ffffffffffffffffffffffffffffffffffffffff1681526020019081526020016000208381548110611da857611da7612cd7565b5b90600052602060002090600a02016006019080519060200190611dcc929190611f65565b50505050565b600460003373ffffffffffffffffffffffffffffffffffffffff1673ffffffffffffffffffffffffffffffffffffffff168152602001908152602001600020805490508510611e56576040517f08c379a0000000000000000000000000000000000000000000000000000000008152600401611e4d90612cb7565b60405180910390fd5b6000600460003373ffffffffffffffffffffffffffffffffffffffff1673ffffffffffffffffffffffffffffffffffffffff1681526020019081526020016000208681548110611ea957611ea8612cd7565b5b9060005260206000209060070201905084816000019080519060200190611ed1929190611f65565b5083816001019080519060200190611eea929190611f65565b5082816002019080519060200190611f03929190611f65565b5081816003019080519060200190611f1c929190611f65565b50505050505050565b508054611f3190612e48565b6000825580601f10611f435750611f62565b601f016020900490600052602060002090810190611f619190611feb565b5b50565b828054611f7190612e48565b90600052602060002090601f016020900481019282611f935760008555611fda565b82601f10611fac57805160ff1916838001178555611fda565b82800160010185558215611fda579182015b82811115611fd9578251825591602001919060010190611fbe565b5b509050611fe79190611feb565b5090565b5b80821115612004576000816000905550600101611fec565b5090565b6000604051905090565b600080fd5b600080fd5b6000819050919050565b61202f8161201c565b811461203a57600080fd5b50565b60008135905061204c81612026565b92915050565b60006020828403121561206857612067612012565b5b60006120768482850161203d565b91505092915050565b600080fd5b600080fd5b6000601f19601f8301169050919050565b7f4e487b7100000000000000000000000000000000000000000000000000000000600052604160045260246000fd5b6120d282612089565b810181811067ffffffffffffffff821117156120f1576120f061209a565b5b80604052505050565b6000612104612008565b905061211082826120c9565b919050565b600067ffffffffffffffff8211156121305761212f61209a565b5b61213982612089565b9050602081019050919050565b82818337600083830152505050565b600061216861216384612115565b6120fa565b90508281526020810184848401111561218457612183612084565b5b61218f848285612146565b509392505050565b600082601f8301126121ac576121ab61207f565b5b81356121bc848260208601612155565b91505092915050565b600080600080608085870312156121df576121de612012565b5b600085013567ffffffffffffffff8111156121fd576121fc612017565b5b61220987828801612197565b945050602085013567ffffffffffffffff81111561222a57612229612017565b5b61223687828801612197565b935050604085013567ffffffffffffffff81111561225757612256612017565b5b61226387828801612197565b925050606085013567ffffffffffffffff81111561228457612283612017565b5b61229087828801612197565b91505092959194509250565b600073ffffffffffffffffffffffffffffffffffffffff82169050919050565b60006122c78261229c565b9050919050565b6122d7816122bc565b81146122e257600080fd5b50565b6000813590506122f4816122ce565b92915050565b6000806040838503121561231157612310612012565b5b600061231f858286016122e5565b92505060206123308582860161203d565b9150509250929050565b600081519050919050565b600082825260208201905092915050565b60005b83811015612374578082015181840152602081019050612359565b83811115612383576000848401525b50505050565b60006123948261233a565b61239e8185612345565b93506123ae818560208601612356565b6123b781612089565b840191505092915050565b6123cb8161201c565b82525050565b60006101408201905081810360008301526123ec818d612389565b90508181036020830152612400818c612389565b90508181036040830152612414818b612389565b90508181036060830152612428818a612389565b905061243760808301896123c2565b61244460a08301886123c2565b81810360c08301526124568187612389565b905081810360e083015261246a8186612389565b905081810361010083015261247f8185612389565b905061248f6101208301846123c2565b9b9a5050505050505050505050565b6000602082840312156124b4576124b3612012565b5b60006124c2848285016122e5565b91505092915050565b600081519050919050565b600082825260208201905092915050565b6000819050602082019050919050565b600082825260208201905092915050565b60006125138261233a565b61251d81856124f7565b935061252d818560208601612356565b61253681612089565b840191505092915050565b61254a8161201c565b82525050565b600061014083016000830151848203600086015261256e8282612508565b915050602083015184820360208601526125888282612508565b915050604083015184820360408601526125a28282612508565b915050606083015184820360608601526125bc8282612508565b91505060808301516125d16080860182612541565b5060a08301516125e460a0860182612541565b5060c083015184820360c08601526125fc8282612508565b91505060e083015184820360e08601526126168282612508565b9150506101008301518482036101008601526126328282612508565b915050610120830151612649610120860182612541565b508091505092915050565b60006126608383612550565b905092915050565b6000602082019050919050565b6000612680826124cb565b61268a81856124d6565b93508360208202850161269c856124e7565b8060005b858110156126d857848403895281516126b98582612654565b94506126c483612668565b925060208a019950506001810190506126a0565b50829750879550505050505092915050565b600060208201905081810360008301526127048184612675565b905092915050565b600060e0820190508181036000830152612726818a612389565b9050818103602083015261273a8189612389565b9050818103604083015261274e8188612389565b905081810360608301526127628187612389565b905061277160808301866123c2565b61277e60a08301856123c2565b61278b60c08301846123c2565b98975050505050505050565b6000806000606084860312156127b0576127af612012565b5b60006127be868287016122e5565b93505060206127cf8682870161203d565b925050604084013567ffffffffffffffff8111156127f0576127ef612017565b5b6127fc86828701612197565b9150509250925092565b600081519050919050565b600082825260208201905092915050565b6000819050602082019050919050565b600060e083016000830151848203600086015261284f8282612508565b915050602083015184820360208601526128698282612508565b915050604083015184820360408601526128838282612508565b9150506060830151848203606086015261289d8282612508565b91505060808301516128b26080860182612541565b5060a08301516128c560a0860182612541565b5060c08301516128d860c0860182612541565b508091505092915050565b60006128ef8383612832565b905092915050565b6000602082019050919050565b600061290f82612806565b6129198185612811565b93508360208202850161292b85612822565b8060005b85811015612967578484038952815161294885826128e3565b9450612953836128f7565b925060208a0199505060018101905061292f565b50829750879550505050505092915050565b600060208201905081810360008301526129938184612904565b905092915050565b600060808201905081810360008301526129b58187612389565b905081810360208301526129c98186612389565b90506129d860408301856123c2565b6129e560608301846123c2565b95945050505050565b600080600060608486031215612a0757612a06612012565b5b600084013567ffffffffffffffff811115612a2557612a24612017565b5b612a3186828701612197565b935050602084013567ffffffffffffffff811115612a5257612a51612017565b5b612a5e86828701612197565b9250506040612a6f8682870161203d565b9150509250925092565b600080600080600060a08688031215612a9557612a94612012565b5b600086013567ffffffffffffffff811115612ab357612ab2612017565b5b612abf88828901612197565b955050602086013567ffffffffffffffff811115612ae057612adf612017565b5b612aec88828901612197565b945050604086013567ffffffffffffffff811115612b0d57612b0c612017565b5b612b1988828901612197565b935050606086013567ffffffffffffffff811115612b3a57612b39612017565b5b612b4688828901612197565b925050608086013567ffffffffffffffff811115612b6757612b66612017565b5b612b7388828901612197565b9150509295509295909350565b600080600080600060a08688031215612b9c57612b9b612012565b5b6000612baa8882890161203d565b955050602086013567ffffffffffffffff811115612bcb57612bca612017565b5b612bd788828901612197565b945050604086013567ffffffffffffffff811115612bf857612bf7612017565b5b612c0488828901612197565b935050606086013567ffffffffffffffff811115612c2557612c24612017565b5b612c3188828901612197565b925050608086013567ffffffffffffffff811115612c5257612c51612017565b5b612c5e88828901612197565b9150509295509295909350565b7f506f737420646f6573206e6f742065786973742e000000000000000000000000600082015250565b6000612ca1601483612345565b9150612cac82612c6b565b602082019050919050565b60006020820190508181036000830152612cd081612c94565b9050919050565b7f4e487b7100000000000000000000000000000000000000000000000000000000600052603260045260246000fd5b7f4e487b7100000000000000000000000000000000000000000000000000000000600052603160045260246000fd5b7f4e487b7100000000000000000000000000000000000000000000000000000000600052601160045260246000fd5b6000612d6f8261201c565b91507fffffffffffffffffffffffffffffffffffffffffffffffffffffffffffffffff821415612da257612da1612d35565b5b600182019050919050565b7f466f72756d20706f737420646f6573206e6f742065786973742e000000000000600082015250565b6000612de3601a83612345565b9150612dee82612dad565b602082019050919050565b60006020820190508181036000830152612e1281612dd6565b9050919050565b7f4e487b7100000000000000000000000000000000000000000000000000000000600052602260045260246000fd5b60006002820490506001821680612e6057607f821691505b60208210811415612e7457612e73612e19565b5b5091905056fea2646970667358221220661b75407d58a8a317407940a7f7ba0cfc1b87394cf2d75eabb0b7291bb130ad64736f6c63430008090033",
  "linkReferences": {},
  "deployedLinkReferences": {}
}